:100000000C945D000C9485000C9485000C94850084
:100010000C9485000C9485000C9485000C9485004C
:100020000C9485000C9485000C9485000C9485003C
:100030000C9485000C9485000C9485000C9485002C
:100040000C947C020C9485000C944A020C942402BB
:100050000C9485000C9485000C9485000C9485000C
:100060000C9485000C94850000000008000201003B
:100070000003040700000000000000000000000072
:10008000250028002B0000000000240027002A0083
:10009000040404040404040402020202020203032E
:1000A0000303030301020408102040800102040836
:1000B0001020010204081020580411241FBECFEFA5
:1000C000D8E0DEBFCDBF11E0A0E0B1E0EAE1F9E0A9
:1000D00002C005900D92AC39B107D9F722E0ACE926
:1000E000B1E001C01D92A334B207E1F710E0CDE505
:1000F000D0E004C02197FE010E948504CC35D107D1
:10010000C9F70E94C6020C948B040C94000090E086
:10011000FC01EC55FF4F249180579F4FFC018491C7
:10012000882399F090E0880F991FFC01EA57FF4F50
:10013000A591B491FC01E458FF4F859194918FB73C
:10014000F894EC91E22BEC938FBF0895AF92BF929D
:10015000CF92DF92EF92FF920F931F93CF93DF9393
:100160006C017B018B01040F151FEB015E01AE18C2
:10017000BF08C017D10759F06991D601ED91FC91E4
:100180000190F081E02DC6010995892B79F7C50111
:10019000DF91CF911F910F91FF90EF90DF90CF9063
:1001A000BF90AF900895FC01538D448D252F30E012
:1001B000842F90E0821B930B541710F0CF96089574
:1001C00001970895FC01918D828D981761F0A28DA1
:1001D000AE0FBF2FB11D5D968C91928D9F5F9F7367
:1001E000928F90E008958FEF9FEF0895FC01918D1D
:1001F000828D981731F0828DE80FF11D858D90E08A
:1002000008958FEF9FEF0895FC01918D228D892F26
:1002100090E0805C9F4F821B91098F73992708950E
:1002200086EA91E00E94040121E0892B09F420E094
:10023000822F089580E090E0892B29F00E94100120
:1002400081110C9400000895FC01A48DA80FB92F12
:10025000B11DA35ABF4F2C91848D90E001968F73EE
:100260009927848FA689B7892C93A089B1898C910D
:10027000837080648C93938D848D981306C002885C
:10028000F389E02D80818F7D80830895EF92FF9226
:100290000F931F93CF93DF93EC0181E0888F9B8DA9
:1002A0008C8D98131AC0E889F989808185FF15C063
:1002B0009FB7F894EE89FF896083E889F989808186
:1002C0008370806480839FBF81E090E0DF91CF9155
:1002D0001F910F91FF90EF900895F62E0B8D10E077
:1002E0000F5F1F4F0F731127E02E8C8D8E110CC0E6
:1002F0000FB607FCFACFE889F989808185FFF5CF31
:10030000CE010E942401F1CFEB8DEC0FFD2FF11DEA
:10031000E35AFF4FF0829FB7F8940B8FEA89FB896D
:1003200080818062CFCFCF93DF93EC01888D8823CB
:10033000B9F0AA89BB89E889F9898C9185FD03C048
:10034000808186FD0DC00FB607FCF7CF8C9185FF2D
:10035000F2CF808185FFEDCFCE010E942401E9CF4D
:10036000DF91CF91089590E0FC01E859FF4F24916F
:10037000FC01EC55FF4F3491FC01E057FF4FE49135
:10038000EE23C9F0222339F0233001F1A8F4213003
:1003900019F1223029F1F0E0EE0FFF1FE458FF4F72
:1003A000A591B4918FB7F894EC91611126C0309566
:1003B0003E233C938FBF08952730A9F02830C9F021
:1003C000243049F7809180008F7D03C080918000A8
:1003D0008F7780938000DFCF84B58F7784BDDBCFAC
:1003E00084B58F7DFBCF8091B0008F778093B00074
:1003F000D2CF8091B0008F7DF9CF3E2BDACF3FB7BF
:10040000F8948091A1019091A201A091A301B091D3
:10041000A40126B5A89B05C02F3F19F00196A11D88
:10042000B11D3FBFBA2FA92F982F8827BC01CD013E
:10043000620F711D811D911D42E0660F771F881F9D
:10044000991F4A95D1F708951F920F920FB60F92F8
:1004500011242F933F934F935F936F937F938F93C9
:100460009F93AF93BF93EF93FF9386EA91E00E942F
:100470002401FF91EF91BF91AF919F918F917F9157
:100480006F915F914F913F912F910F900FBE0F9001
:100490001F9018951F920F920FB60F9211242F9351
:1004A0008F939F93EF93FF93E091B601F091B70183
:1004B0008081E091BC01F091BD0182FD1BC0908163
:1004C0008091BF018F5F8F732091C001821741F02F
:1004D000E091BF01F0E0EA55FE4F958F8093BF0198
:1004E000FF91EF919F918F912F910F900FBE0F90E1
:1004F0001F9018958081F4CF1F920F920FB60F9224
:1005000011242F933F938F939F93AF93BF93809129
:100510009D0190919E01A0919F01B091A001309109
:100520009C0123E0230F2D3758F50196A11DB11D25
:1005300020939C0180939D0190939E01A0939F0125
:10054000B093A0018091A1019091A201A091A3017B
:10055000B091A4010196A11DB11D8093A1019093BA
:10056000A201A093A301B093A401BF91AF919F9169
:100570008F913F912F910F900FBE0F901F90189564
:1005800026E8230F0296A11DB11DD2CF789484B521
:10059000826084BD84B5816084BD85B5826085BD7F
:1005A00085B5816085BD80916E00816080936E000D
:1005B00010928100809181008260809381008091FF
:1005C00081008160809381008091800081608093B0
:1005D00080008091B10084608093B1008091B00070
:1005E00081608093B00080917A00846080937A006B
:1005F00080917A00826080937A0080917A00816095
:1006000080937A0080917A00806880937A001092BB
:10061000C1008AE00E948700CFB7F8948091A501BD
:10062000811124C0EAE9F0E08491EEEAF0E09491CF
:10063000E82FF0E0EE0FFF1FEA57FF4FA591B491AE
:10064000EC91E92321F461E08AE00E94B3018AE0A1
:100650000E9487008CB580618CBD8CB580648CBD98
:100660008DE00E9487008BE00E9487008091A501A9
:100670008F5F8093A501CFBFE091B601F091B701E4
:1006800082E08083E091B201F091B3011082E091A9
:10069000B401F091B50110821092BE01E091BA014F
:1006A000F091BB0186E08083E091B801F091B9013F
:1006B000808180618083E091B801F091B9018081EF
:1006C00088608083E091B801F091B90180818068F1
:1006D0008083E091B801F091B90180818F7D8083A2
:1006E00089E00E94870088E00E948700389A4BE6E4
:1006F000A42EB12C5BE6352E03EC10E0CBE8D1E064
:1007000060E0862E60E0962E89E00E948700E1E797
:10071000F0E08491833009F440C048F48130C9F09E
:100720008230B1F160E089E00E94B30116C08730E9
:1007300009F43DC0883009F442C0843099F78091B3
:100740008000806280938000B0928B00A0928A002B
:1007500004C084B5806884BD37BC41E350E062E1E9
:1007600071E086EA91E00E94A60060E08AE00E94C3
:10077000B301C8010197F1F7E4E4F1E08191882326
:1007800031F18EBD00000DB407FEFDCF8EB5F6CF62
:1007900084B5806284BD38BCE0CF809180008068E1
:1007A00080938000B0928900A0928800D6CF80917B
:1007B000B00080688093B0003092B300CECF8091BB
:1007C000B00080628093B0003092B400C6CFC80100
:1007D0000197F1F761E08AE00E94B3013EE6E32E63
:1007E00031E0F32EF701808161E0882369F188E030
:1007F0000E94B301F7018081082E000C990B24E0C0
:10080000959587952A95E1F78F7088B9CE01019764
:10081000F1F760E088E00E94B301CE010197F1F7A3
:1008200061E088E00E94B301F70181917F018F7040
:1008300088B9CE010197F1F760E088E00E94B3012A
:10084000CE010197F1F7CECF88E00E94B3010E945C
:10085000FF012B013C0188EEC82E83E0D82EE12C4D
:10086000F12C0E94FF016419750986099709683EF9
:10087000734081059105A8F3F1E0CF1AD108E10892
:10088000F10828EE420E23E0521E611C711CC114B7
:10089000D104E104F10429F78114910409F434CF5F
:1008A0000E941001882309F42FCF0E9400002CCF52
:1008B000E6EAF1E01382128288EE93E0A0E0B0E075
:1008C00084839583A683B78384E091E091838083BA
:1008D00085EC90E09587848784EC90E09787868705
:1008E00080EC90E0918B808B81EC90E0938B828BFD
:1008F00082EC90E0958B848B86EC90E0978B868BD6
:10090000118E128E138E148E0895EE0FFF1F059018
:0A091000F491E02D0994F894FFCF54
:10091A00000000004601A600D30093010401E20092
:10092A00F600427261766F207475206173207472CA
:10093A006F757665206C61207072656D6965726588
:10094A0020636C65662027494569536D574B61766C
:10095A00786F2700486F75727261202120766F695F
:10096A006369206C612032656D6520636C65662061
:10097A00276A6A544F5965724852566F270046656E
:10098A006C696369746174696F6E20766F696369F3
:10099A00206C612033656D6520636C656620277A5B
:0C09AA0069385368416F73717A49270067
:00000001FF
